:020000040000FA
:040000009FEF0AF074
:10060000003F065B4F666D7D077F6F777C395E79B3
:1006100071202020536D61727420526F6F6D202005
:100620002000496E696369616C697A616E646F2E3E
:100630002E2E0062793A204F726C616E646F2042F8
:1006400065636F00392D506F7274613A00232D413C
:10065000717565633A004F50454E20202000434C91
:100660004F5345442000362D56656E743A004F4E68
:1006700020202020004F464620202000332D4C759E
:100680007A3A004F4E2020004F464620004F5045FA
:070690004E004F464600003A
:1006980017BE5AEF03F0175007E1080E165CD8B0E2
:1006A80058EF03F05AEF03F084EF03F018501910D5
:1006B800D8B461EF03F063EF03F073EF03F016C0F3
:1006C8001AF0010E1B6E1A2A6CEF03F0D8901B3635
:1006D8001A2E6AEF03F01B50801272EF04F016C056
:1006E8001AF0010E1B6E1A2A7CEF03F0D8901B3605
:1006F8001A2E7AEF03F01B50FF0A801672EF04F0EF
:1007080017BE92EF03F0175007E1100E165CD8B031
:1007180090EF03F092EF03F0C0EF03F0F80E162607
:10072800FF0E172218501910D8B49DEF03F09FEF51
:1007380003F0AFEF03F016C01AF0010E1B6E1A2A71
:10074800A8EF03F0D8901B361A2EA6EF03F01B5023
:10075800811272EF04F016C01AF0010E1B6E1A2AED
:10076800B8EF03F0D8901B361A2EB6EF03F01B50E3
:10077800FF0A811672EF04F017BECEEF03F0175090
:1007880007E1180E165CD8B0CCEF03F0CEEF03F0FB
:10079800FCEF03F0F00E1626FF0E17221850191062
:1007A800D8B4D9EF03F0DBEF03F0EBEF03F016C09A
:1007B8001AF0010E1B6E1A2AE4EF03F0D8901B36CC
:1007C8001A2EE2EF03F01B50821272EF04F016C0EB
:1007D8001AF0010E1B6E1A2AF4EF03F0D8901B369C
:1007E8001A2EF2EF03F01B50FF0A821672EF04F084
:1007F80017BE0AEF04F0175007E1200E165CD8B0B8
:1008080008EF04F00AEF04F038EF04F0E80E1626BB
:10081800FF0E172218501910D8B415EF04F017EF6F
:1008280004F027EF04F016C01AF0010E1B6E1A2A06
:1008380020EF04F0D8901B361A2E1EEF04F01B5040
:10084800831272EF04F016C01AF0010E1B6E1A2AFA
:1008580030EF04F0D8901B361A2E2EEF04F01B5000
:10086800FF0A831672EF04F017BE46EF04F0175024
:1008780007E1280E165CD8B044EF04F046EF04F008
:1008880072EF04F0E00E1626FF0E1722185019100A
:10089800D8B451EF04F053EF04F063EF04F016C03E
:1008A8001AF0010E1B6E1A2A5CEF04F0D8901B3662
:1008B8001A2E5AEF04F01B50841272EF04F016C07F
:1008C8001AF0010E1B6E1A2A6CEF04F0D8901B3632
:1008D8001A2E6AEF04F01B50FF0A8416120017BE86
:1008E80081EF04F0175007E1080E165CD8B07FEFCF
:1008F80004F081EF04F0ABEF04F018501910D8B4ED
:1009080088EF04F08AEF04F09AEF04F016C01AF0AA
:10091800010E1B6E1A2A93EF04F0D8901B361A2E7C
:1009280091EF04F01B50921299EF05F016C01AF0DF
:10093800010E1B6E1A2AA3EF04F0D8901B361A2E4C
:10094800A1EF04F01B50FF0A921699EF05F017BEAD
:10095800B9EF04F0175007E1100E165CD8B0B7EFE6
:1009680004F0B9EF04F0E7EF04F018501910D8B408
:10097800C0EF04F0C2EF04F0D4EF04F016C01AF090
:10098800F80E1A26010E1B6E1A2ACDEF04F0D89025
:100998001B361A2ECBEF04F01B50931299EF05F07B
:1009A80016C01AF0F80E1A26010E1B6E1A2ADFEF6F
:1009B80004F0D8901B361A2EDDEF04F01B50FF0A06
:1009C800931699EF05F017BEF5EF04F0175007E1FD
:1009D800180E165CD8B0F3EF04F0F5EF04F023EF2F
:1009E80005F018501910D8B4FCEF04F0FEEF04F02D
:1009F80010EF05F016C01AF0F00E1A26010E1B6E45
:100A08001A2A09EF05F0D8901B361A2E07EF05F0C1
:100A18001B50941299EF05F016C01AF0F00E1A2622
:100A2800010E1B6E1A2A1BEF05F0D8901B361A2EE2
:100A380019EF05F01B50FF0A941699EF05F017BE41
:100A480031EF05F0175007E1200E165CD8B02FEFF4
:100A580005F031EF05F05FEF05F018501910D8B424
:100A680038EF05F03AEF05F04CEF05F016C01AF034
:100A7800E80E1A26010E1B6E1A2A45EF05F0D890CB
:100A88001B361A2E43EF05F01B50951299EF05F00F
:100A980016C01AF0E80E1A26010E1B6E1A2A57EF16
:100AA80005F0D8901B361A2E55EF05F01B50FF0A9B
:100AB800951699EF05F017BE6DEF05F0175007E191
:100AC800280E165CD8B06BEF05F06DEF05F099EFC6
:100AD80005F018501910D8B474EF05F076EF05F04A
:100AE80088EF05F016C01AF0E00E1A26010E1B6EEC
:100AF8001A2A81EF05F0D8901B361A2E7FEF05F0E1
:100B08001B50961299EF05F016C01AF0E00E1A263F
:100B1800010E1B6E1A2A93EF05F0D8901B361A2E79
:100B280091EF05F01B50FF0A9616120083CF1BF0B9
:100B3800000E836E0F0E9512000E1F6EF80E9316A0
:100B48001FC016F0010E176E162AADEF05F0D890EB
:100B58001736162EABEF05F017509312070E8112B9
:100B68001FC016F0010E176E162ABDEF05F0D890BB
:100B78001736162EBBEF05F01750FF0A8116000E28
:100B88001D6E000E1C6E1C4A1D2A1DBED5EF05F0F9
:100B98001D5009E10A0E1C5CD8A0D5EF05F0D7EF6F
:100BA80005F0C7EF05F0000E1E6E1EC016F0010E10
:100BB800176E162AE2EF05F0D8901736162EE0EFDA
:100BC80005F0175083140009D8A4EDEF05F0EFEFF6
:100BD80005F007EF06F01F50040DF3501E24166EA3
:100BE800010E176E000E186E162AFEEF05F0D8904B
:100BF80017361836162EFBEF05F01750031218504B
:100C0800041221EF06F01F50040DF3501E24166E37
:100C1800010E176E000E186E162A16EF06F0D89001
:100C280017361836162E13EF06F0171C196E181CF7
:100C38001A6E195003161A5004161E2A030E1E6443
:100C480028EF06F02AEF06F0D9EF05F01F2A020E6A
:100C58001F6431EF06F033EF06F0A2EF05F0035002
:100C6800011807E104500218D8A43DEF06F03FEF41
:100C780006F042EF06F0140648EF06F00A0E146E6E
:100C880003C001F004C002F01450D8A44EEF06F0DF
:100C980050EF06F054EF06F001C005F002C006F070
:100CA8001BC083FF000E956E12009AEC05F0B9EC9C
:100CB8000AF02850161809E129501718D8B467EF18
:100CC80006F069EF06F0CFEF06F0B9EC0AF016C0AF
:100CD80028F017C029F0000E276E000E266E26C0D9
:100CE80023F0010E246E000E256E232A7FEF06F0F6
:100CF800D89024362536232E7CEF06F0285024166B
:100D08002950251624502510D8B48DEF06F08FEF02
:100D180006F0BFEF06F00B0E26182710D8A497EFA1
:100D280006F099EF06F09BEF06F040EC09F00A0E8A
:100D380026182710D8A4A3EF06F0A5EF06F0A7EF12
:100D480006F034EC0AF0090E26182710D8A4AFEFE5
:100D580006F0B1EF06F0B3EF06F016EC09F0080E56
:100D680026182710D8A4BBEF06F0BDEF06F0BFEF9A
:100D780006F0BCEC09F0264A272A27BECDEF06F07C
:100D8800275009E10C0E265CD8A0CDEF06F0CFEF76
:100D980006F073EF06F01200000E256E23BED9EFA1
:100DA80006F0D7EF06F0DFEF06F0226C231ED8B06E
:100DB800232A010E256E21BEE6EF06F0E4EF06F0C9
:100DC800ECEF06F0206C211ED8B0212A010E251A5E
:100DD800000E276E000E266E22502310D8B4F7EFAF
:100DE80006F0F9EF06F021EF07F0010E246E01EF8F
:100DF80007F0D89022362336242A23AE06EF07F0D0
:100E080008EF07F0FDEF06F0D89026362736225077
:100E1800205C23502158D8A014EF07F016EF07F0F4
:100E28001BEF07F02250205E2350215A2680D890CD
:100E380023322232242E08EF07F02550D8B427EFAA
:100E480007F029EF07F02DEF07F0266C271ED8B022
:100E5800272A26C020F027C021F01200010E8FECAF
:100E680007F00C0E8FEC07F0400E8FEC07F0800EA9
:100E78008FEC07F0220E1E6E060E1F6EE4EC09F0D2
:100E8800000E216E020E206ECEEC07F0C00E8FEC25
:100E980007F0110E1E6E060E1F6EE4EC09F0000E30
:100EA800216E020E206ECEEC07F0D00E8FEC07F00C
:100EB800330E1E6E060E1F6EE4EC09F0000E216E56
:100EC800030E206ECEEC07F094EC09F08A0E8FEC3E
:100ED80007F0920E1E6E060E1F6EE4EC09F0CA0EA5
:100EE8008FEC07F0920E1E6E060E1F6EE4EC09F0F2
:100EF8009A0E8FEC07F08D0E1E6E060E1F6EE4EC38
:100F080009F0DA0E8FEC07F0920E1E6E060E1F6EB9
:100F1800E4EC09F012001D6E83CF1CF0000E956EF4
:100F2800000E176E220E166E000E196E000E186E49
:100F38004CEC03F01DC083FF000E176E210E166ED9
:100F4800000E196E010E186E4CEC03F0000E176EB1
:100F5800210E166E000E196E000E186E4CEC03F082
:100F68001CC083FF020E1D18D8B4BDEF07F0BFEFF9
:100F780007F0C7EF07F01D04D8A4C5EF07F0C7EFC7
:100F880007F0CBEF07F085EC0AF0CDEF07F093EC14
:100F98000AF01200000E236E000E226EF4EF07F026
:100FA800000E246E280E2464DCEF07F0DEEF07F055
:100FB800E0EF07F0F2EF07F0000E256E020E256451
:100FC800E8EF07F0EAEF07F0ECEF07F0EFEF07F0D4
:100FD800252AE2EF07F0242AD6EF07F0224A232A2F
:100FE80020C01AF021C01BF0030E1D6EE80E1C6E07
:100FF80072EC0AF01A50225C1B502358D8A007EF55
:1010080008F009EF08F0D4EF07F01200000E176E91
:10101800220E166E000E196E000E186E73EC04F098
:10102800000E176E210E166E000E196E000E186E49
:1010380073EC04F0000E956E85EC0AF085EC0AF06E
:1010480085EC0AF085EC0AF085EC0AF0380E8FEC96
:1010580007F085EC0AF085EC0AF0380E8FEC07F003
:1010680085EC0AF0380E8FEC07F0380E8FEC07F09D
:10107800060E8FEC07F00C0E8FEC07F0010E8FECCC
:1010880007F01200000E1B6E000E1A6E1850191091
:10109800D8B451EF08F053EF08F07BEF08F0010ED9
:1010A8001C6E5BEF08F0D890183619361C2A19AE5A
:1010B80060EF08F062EF08F057EF08F0D8901A36A2
:1010C8001B361850165C19501758D8A06EEF08F048
:1010D80070EF08F075EF08F01850165E1950175A9F
:1010E8001A80D890193218321C2E62EF08F01AC0F4
:1010F80016F01BC017F01200226E010ECB241A6ED8
:101108001B6A000E1B2222C01CF01D6A72EC0AF03A
:101118001AC023F01BC024F023C016F024C017F017
:10112800000E196E190E186E46EC08F016C023F062
:1011380017C024F0FF0E2316030E241623C020F038
:1011480024C021F0D89021322032D8902132203288
:101158002050BE6E23C020F0030E20162038F00B5E
:10116800BD121200060EC16EC30E926E070E936E6C
:10117800000E946E000E956E000E966E000E296E8F
:10118800100E286E000E0E6E000E0D6E000E0C6E08
:10119800000E0B6E000E0A6E000E096E000E086E31
:1011A800000E076E5AEC0AF0AAEC0AF00AEC08F0F6
:1011B800B4EC0AF032EC07F059EC06F0E8EC08F071
:1011C800E0EF08F000EF00F00B500C10D8B4EFEF90
:1011D80008F0F1EF08F012EF09F0000E176E000E9C
:1011E800166E0CEC0AF016C01AF017C01BF0000EB1
:1011F8001D6E140E1C6E72EC0AF01AC020F01BC093
:1012080021F0000E236ECC0E226ED0EC06F020509A
:10121800156E155080EC08F015EF09F0000E80EC03
:1012280008F012000D040E10D8A41DEF09F01FEFEE
:1012380009F030EF09F0000E0E6E000E0D6E829070
:1012480084909A0E8FEC07F0560E1E6E060E1F6ED7
:10125800E4EC09F03FEF09F0000E0E6E010E0D6E82
:10126800828084809A0E8FEC07F05E0E1E6E060E4A
:101278001F6EE4EC09F0120009040A10D8A447EF25
:1012880009F049EF09F05AEF09F0000E0A6E000E56
:10129800096E000E816E8A0E8FEC07F0750E1E6EB9
:1012A800060E1F6EE4EC09F069EF09F0000E0A6EF5
:1012B800010E096EF80E816E8A0E8FEC07F06E0E25
:1012C8001E6E060E1F6EE4EC09F012001C6E83CF32
:1012D8001DF0000E956E000E176E220E166E000E93
:1012E800196E010E186E4CEC03F01CC083FF000E43
:1012F800176E210E166E000E196E010E186E4CEC4C
:1013080003F0000E176E210E166E000E196E000EF9
:10131800186E4CEC03F01DC083FF93EC0AF012002A
:10132800010E8FEC07F0800E8FEC07F07C0E1E6E1E
:10133800060E1F6EE4EC09F0C00E8FEC07F0660E87
:101348001E6E060E1F6EE4EC09F0900E8FEC07F08F
:10135800440E1E6E060E1F6EE4EC09F0D00E8FECE4
:1013680007F04D0E1E6E060E1F6EE4EC09F012001B
:1013780007040810D8A4C3EF09F0C5EF09F0D5EFAA
:1013880009F0000E086E000E076E829ADA0E8FECD6
:1013980007F0880E1E6E060E1F6EE4EC09F0E3EFF0
:1013A80009F0000E086E010E076E828ADA0E8FECC5
:1013B80007F0830E1E6E060E1F6EE4EC09F0120095
:1013C800000E226EF7EF09F022501E24206E000E48
:1013D8001F20216E20C0F6FF21C0F7FF0800F5503E
:1013E8006AEC09F0222A22501E24206E000E1F20CB
:1013F800216E20C0F6FF21C0F7FF0800F550000954
:10140800D8A409EF0AF00BEF0AF0E8EF09F0120090
:10141800C30EC216175007E1030E165CD8B017EFBB
:101428000AF019EF0AF01DEF0AF01644E846FC0B23
:10143800C212C282C2B223EF0AF025EF0AF01EEFF1
:101448000AF0C4CF18F0196A1850196E186AC350F8
:101458001826000E192218C016F019C017F012002D
:101468000B040C10D8A43BEF0AF03DEF0AF04CEF48
:101478000AF0000E0C6E000E0B6ECA0E8FEC07F011
:10148800750E1E6E060E1F6EE4EC09F059EF0AF099
:10149800000E0C6E010E0B6ECA0E8FEC07F0830E59
:1014A8001E6E060E1F6EE4EC09F01200000E176E99
:1014B800000E166E000E196E010E186E73EC04F015
:1014C800000E176E010E166E000E196E010E186EC4
:1014D80073EC04F0C280AA0EC06E12001A501C02EF
:1014E800F3CF1EF0F4CF1FF01A501D02F3501F2641
:1014F8001B501C02F3501F261EC01AF01FC01BF001
:101508001200000E176E93EC0AF0172A310E1764BA
:1015180090EF0AF092EF0AF087EF0AF01200000E3F
:10152800166E162A180E16649CEF0AF09EEF0AF043
:1015380095EF0AF0120000EE01F0150EEE6AE806CB
:10154800FDE1000EF86E0001B6EF08F09492949455
:10155800030ECA12CA840C0EBD120C0EBA12120067
:10156800070E93160F0E9512120005C016F006C04E
:0415780017F0120056
:020000040020DA
:08000000FFFFFFFFFFFFFFFF00
:020000040030CA
:0E000000FF021F00FF8381FF0FC00FE00F40C3
:00000001FF
